S01000007573625F746573742E73726563AB
S1134000E03F0010054700007147000071470000C1
S11340107147000071470000714700000000000074
S113402000000000000000000000000071470000D4
S11340307147000000000000714700007147000054
S1134040714700007147000071470000714700008C
S1134050714700007147000071470000714700007C
S1134060714700007147000071470000714700006C
S1134070714700007147000071470000714700005C
S1134080714700007147000071470000714700004C
S1134090714700007147000071470000714700003C
S11340A0554500007147000071470000714700004A
S11340B0714700007147000071470000714700001C
S11340C0714700007147000071470000044B054828
S11340D01B1A062B02D9044B03B11847704700BFC3
S11340E0FF040010FC04001000000000054906480D
S11340F0091A891001EBD171491002D0034B03B1A5
S113410018477047FC040010FC0400100000000075
S113411010B5064C237843B9FFF7D8FF044B13B10D
S11341200448AFF300800123237010BDFC04001089
S113413000000000185E000008B5084B1BB10848D9
S11341400849AFF300800848036813B9BDE8084084
S1134150CCE7064B002BF9D09847F7E700000000A6
S1134160185E000000050010FC04001000000000B0
S1134170014600200246034600F03EB838B5084B1D
S1134180084DED1AAC1018BFED1805D0013C55F8D8
S1134190043D9847002CF9D1BDE8384001F046BEF3
S11341A0385E00003C5E000070B50F4E0F4D761B6C
S11341B0B61018BF002405D0013455F8043B9847C5
S11341C0A642F9D10A4E0B4D01F026FE761BB6101D
S11341D018BF002406D0013455F8043B9847A64282
S11341E0F9D170BD70BD00BF245E0000245E0000E4
S11341F02C5E0000245E00002DE9F047254C0646A5
S113420025688846D5F8484192469946C4B3606803
S11342101F2817DC411C76B104EB8003C3F888A087
S1134220D4F88851012282401543022EC4F88851E3
S1134230C3F808911ED0831C6160002044F82380D9
S1134240BDE8F087144B03B34FF4C870AFF300809C
S11342500446D0B1D5F84831002784E888003846B0
S1134260C5F848410121C4F88871C4F88C71002E46
S1134270E1D0D1E7D4F88C311A43C4F88C21DAE7C1
S113428005F5A674C5F84841C1E74FF0FF30BDE815
S1134290F08700BF185D000000000000024B13B15E
S11342A00248FFF765BF7047000000007D41000031
S11342B080B582B000AF00F043FB00F051F900F08C
S11342C033F978607B68B3F1FF3F0FD0084B1B686C
S11342D003F00203002B03D0064B02221A6002E013
S11342E0054B02221A60786800F006F9E7E700BF80
S11342F034C009203CC0092038C0092080B584B0EE
S113430000AFF860B9607A60FB685B78212B0ED04F
S1134310222B15D0202B11D17B681B680B48194622
S1134320072201F081FCBB6807221A6009E07B6860
S1134330064A1A60BB6807221A6002E0002301E003
S113434000BF012318461037BD4680BD4C04001041
S113435080B584B000AF03460A46FB711346BB71B7
S1134360134800F0C1F903463F2B00DC1CE0FB7945
S113437018461049402200F0F9FFB8600023FB60A2
S11343800EE00C4AFB6813441B780948194600F0F8
S113439035F90346002B00D106E0FB680133FB60CE
S11343A0FA68BB689A42ECDB1037BD4680BD00BF9B
S11343B0740600101805001080B584B000AF0346E1
S11343C03960FB711A4B00221A603B68002B02D043
S11343D0184B00221A60174B1B68002B00D023E0F7
S11343E00023FB600DE0FB68134A1344134819468D
S11343F000F030F90346002B00D105E0FB680133DF
S1134400FB60FB683F2BEEDDFB68FA7910460A4936
S11344101A4600F05DFF064B01221A60FB683F2B31
S113442002DC044B01221A601037BD4680BD00BF78
S113443060050010640500101805001068060010DF
S113444080B582B000AF03460A46FB711346BB71C8
S1134450FB7918460021FFF7AFFF0837BD4680BD42
S113446080B582B000AF0346FB80084B1B68002B6D
S113447009D1074800F01CF90346002B03D0822021
S11344800121FFF799FF0837BD4680BD6005001084
S11344906806001080B483B000AF0346FB71FB795B
S11344A003F01003002B02D0034B00221A600C37D8
S11344B0BD465DF8047B70476005001080B500AF11
S11344C00748084900F086F80748084900F082F8D0
S11344D0074B00221A60074B01221A6080BD00BFFF
S11344E0680600106805001074060010E805001046
S11344F0600500106405001080B582B000AF7860DC
S11345007B68DBB20748194600F078F80346002BB5
S113451001D07B6801E04FF0FF3318460837BD46F1
S113452080BD00BF6806001080B582B000AFFB1DDF
S11345300748194600F08EF80346002B01D0FB799A
S113454001E04FF0FF3318460837BD4680BD00BF79
S11345507406001080B500AF00F080FF80BD00BF7E
S113456080B500AF00F000FD124801F039F90120D8
S11345701149124A00F0D4FC8120002100F0DCFD36
S113458082200F4900F0D8FD05200E4900F0D4FD2B
S11345900D4800F019FE0D4800F000FEFFF78EFFF5
S11345A00B4A0B4B1B6843F080731360012000F02F
S11345B033FE80BD1C5D0000FD4200005805001064
S11345C04144000051430000614400009544000050
S11345D000E100E080B483B000AF786039607B68AC
S11345E000221A607B6800225A607B683A689A60ED
S11345F00C37BD465DF8047B704700BF80B485B0BE
S113460000AF78600B46FB707B681B685A1C104B2C
S11346101340002B03DA013B63F07F030133FB609B
S11346207B685A68FB689A4201D100230AE07B68E0
S11346309B687A6812681344FA781A707B68FA687F
S11346401A60012318461437BD465DF8047B704791
S11346507F00008080B485B000AF786039607B68EB
S11346601A687B685B689A4201D1002317E07B6873
S11346705B685A1C0D4B1340002B03DA013B63F0BB
S11346807F030133FB607B689B687A68526813443C
S11346901A783B681A707B68FA685A6001231846D6
S11346A01437BD465DF8047B704700BF7F0000806F
S11346B080B483B000AF78607B681B6803F180022C
S11346C07B685B68D21A074B1340002B03DA013B6B
S11346D063F07F03013318460C37BD465DF8047B55
S11346E0704700BF7F00008080B582B000AF786063
S11346F07868FFF7DDFF0346C3F17F0318460837E8
S1134700BD4680BD80B582B000AF124B7B60124BBA
S11347103B6007E03B681A1D3A607A68111D7960B6
S113472012681A603B680D4A9342F3D30C4B7B60CA
S113473004E07B681A1D7A6000221A607B68094ACB
S11347409342F6D3FFF730FD074B084A1A60FFF790
S1134750AFFDFEE7405E000020000010FA040010E8
S1134760FC0400101507001008ED00E000400000F4
S113477080B400AFFEE700BF80B483B000AF7860C0
S11347807B689A087B68DB081A447B689B091A4497
S11347907B68DB091A447B689B0A1A447B68DB0A42
S11347A01344074A136000BF054B1B68013B044ACE
S11347B01360002BF8D10C37BD465DF8047B7047BD
S11347C08006001080B500AF00F036F8104B0022D0
S11347D01A60104B4CF212721A600F4B40F2B11275
S11347E01A600E4B00221A600D4B4FF040521A60B3
S11347F00C4B00221A600C4B00221A600B4B002257
S11348001A600B4B00221A600A4B00221A6080BD0A
S113481000C0092020C0092040C0092060C0092030
S113482080C0092014C0092034C0092054C00920C4
S113483074C0092094C0092080B400AF274B002223
S11348401A60274B00221A60264B00221A60264B5E
S113485000221A60254B00221A60254B00221A60A0
S1134860244B00221A60244B00221A60234B00229E
S11348701A60234B00221A60224B00221A60224B3A
S113488000221A60214B00221A60214B00221A6078
S1134890204B00221A60204B00221A601F4B00227A
S11348A01A601F4B00221A601E4B00221A601E4B16
S11348B000221A601D4B00221A601D4B00221A6050
S11348C01C4B00221A601C4B00221A601B4B002256
S11348D01A60BD465DF8047B704700BF00C002400B
S11348E004C0024008C002400CC0024010C0024094
S11348F01CC0024024C0024028C0024000C009205D
S113490020C0092040C0092060C0092080C00920BF
S113491040C0024044C0024048C002404CC0024073
S113492050C002405CC0024064C0024014C0092070
S113493034C0092054C0092074C0092094C009203F
S113494080B500AFFFF73EFF00F028F800F0E6F86E
S113495080BD00BF80B400AF0D4A0D4B1B6823F42B
S1134960701313600B4A0B4B1B6823F0C063136076
S1134970094A094B1B6843F420131360064A064B8B
S11349801B6823F4A0131360BD465DF8047B7047D5
S113499004C0024000C0092044C0024080B500AFFA
S11349A0FFF7D8FF094B4FF400721A603220FFF76B
S11349B0E3FE074B20221A60044B4FF480421A6036
S11349C00D2047F6FF7100F05FF880BD38C0092064
S11349D058C0092080B485B000AF03463960FB712C
S11349E0FB79013B012202FA03F3FB60184B2022FE
S11349F01A601EE03A68FB681340002B03D0154B85
S1134A0001221A6002E0124B01221A603B685B002B
S1134A103B60104B10221A600F4B1B6803F002031B
S1134A20002B03D03B6843F001033B60084B10228A
S1134A301A60FB795A1EFA71002BDBD1054B202238
S1134A401A603B6818461437BD465DF8047B70470E
S1134A505CC0092058C0092054C0092080B584B026
S1134A6000AF0346FB71FB7963F07F03DBB21B04E9
S1134A70FB601820F968FFF7ADFFB860BB689BB214
S1134A8018461037BD4680BD80B584B000AF0346DC
S1134A900A46FB711346BB80FB791A04BB88134397
S1134AA0FB601820F968FFF795FF1037BD4680BDFD
S1134AB080B500AF08200021FFF78CFF0346DBB26E
S1134AC0184680BD80B582B000AF0346FB71FB7908
S1134AD008201946FFF77EFF0346DBB21846083765
S1134AE0BD4680BD80B500AF00200021FFF7CCFF9C
S1134AF000BF0020FFF7B2FF0346002BF9D10020CE
S1134B004FF40041FFF7C0FF00BF0020FFF7A6FFEE
S1134B100346B3F5004FF8D180BD00BF80B500AFA8
S1134B205E4B44F23A021A605D4B00221A605D4A01
S1134B305C4B1B6823F0020313605B4BAA221A60D0
S1134B40594B55221A6000BF584B1B6803F0007381
S1134B50002BF9D1534A534B1B6823F00103136014
S1134B60514BAA221A60504B55221A6000BF4F4B7A
S1134B701B6803F08073002BF9D14D4B00221A609F
S1134B80FFF7B0FF082041F27051FFF77DFF60206E
S1134B90FFF798FF00BFFFF78BFF034603F04003C6
S1134BA0002BF8D0434B20221A6000BF414B1B68F6
S1134BB003F04003002BF9D03F4B08221A603F4B0F
S1134BC000221A60364B01221A603D4B3D4A1A609E
S1134BD0354BAA221A60344B55221A60314A314BA4
S1134BE01B6843F0010313602F4BAA221A602E4B5B
S1134BF055221A6000BF2D4B1B6803F08073002BF5
S1134C00F9D02B4B03221A60264A264B1B6843F02B
S1134C1002031360244BAA221A60234B55221A6004
S1134C2000BF224B1B6803F00073002BF9D0264B06
S1134C3022221A60254BAA221A60244B55221A609C
S1134C40234A234B1B6843F0010313601F4BAA2222
S1134C501A601E4B55221A6000BF1E4B1B6803F4DA
S1134C608073002BF9D000BF1A4B1B6803F48063D8
S1134C70002BF9D0164A164B1B6843F0020313604D
S1134C80124BAA221A60114B55221A6000BF114B15
S1134C901B6803F40073002BF9D080BD00C00F40E3
S1134CA00CC10F4080C00F408CC00F4088C00F4023
S1134CB004C10F40A0C10F40A8C10F40ACC10F40B8
S1134CC084C00F4018000100A4C00F40ACC00F40C6
S1134CD0A0C00F40A8C00F4080B588B000AFF860F6
S1134CE0B9607A60FB681B785B09DBB203F00303ED
S1134CF0FB61FB69022B0ED100237B6107F11403D6
S1134D00F8681946BA687B6800F0E8FC0346002B93
S1134D1001D07B690FE00A4AFB6952F82330BB617A
S1134D20BB69002B01D1002305E0BB69F868B968B1
S1134D307A689847034618462037BD4680BD00BFB1
S1134D409806001080B584B000AF0346FB71802044
S1134D50012100F099FA074BBB600023FB6002E0DD
S1134D60FB680133FB60FB68072BF9DD1037BD4698
S1134D7080BD00BF8406001080B582B000AF0E4B2A
S1134D801B68402BA8BF40237B600C4B1A687B68D0
S1134D90802011461A4600F09BFA084B1A687B687B
S1134DA01344064A1360044B1A687B68D31A024AF8
S1134DB013600837BD4680BD900600108C060010B5
S1134DC080B584B000AF03460A46FB711346BB713D
S1134DD0FB79002B40F09180BB7903F00403002B96
S1134DE041D000204949082200F0C0FA474B1B7803
S1134DF05B09DBB203F00303FB60454AFB6852F82E
S1134E002330444A1360414BDB881A46424B1A60F4
S1134E103E4BDB881A46414B1A603C4BDB88002B27
S1134E2007D03A4B1B78DB09DBB203F00103002BFC
S1134E3068D036483949374AFFF74EFF0346002BFE
S1134E4004D1BB791846FFF77DFF5BE02F4BDB886D
S1134E501A46324B1B689342A8BF13462E4A13606E
S1134E60FFF78AFF4EE02C4B1B68002B3EDD294BDD
S1134E701A68294B1B68002011461A4600F076FA7E
S1134E80B860BB68002B04DABB791846FFF75AFFF9
S1134E9038E0204B1A68BB6813441E4A13601E4B4B
S1134EA01A68BB68D31A1C4A13601B4B1B68002B7F
S1134EB028D1164B1B785B09DBB203F00303FB60BC
S1134EC0134AFB6852F82330124A13600F481349FF
S1134ED0104AFFF701FF0346002B04D1BB791846A3
S1134EE0FFF730FF0EE0FFF747FF0BE00020002143
S1134EF0002200F03BFAB86004E0FB79802B01D17A
S1134F00FFF73AFF1037BD4680BD00BF840600108E
S1134F10A80600108C0600109006001094060010DD
S1134F2080B485B000AFF860B9607A600749FB6867
S1134F30BA6841F823200649FB687A6841F82320BF
S1134F401437BD465DF8047B704700BF9806001017
S1134F50A806001080B483B000AF0346FB710C3781
S1134F60BD465DF8047B704780B500AF00F040FBA0
S1134F700D4800F013F900200C4900F0DDF8802002
S1134F800A4900F0D9F80020402100F0B7F8802049
S1134F90402100F0B3F800200549064AFFF7C0FF9E
S1134FA00123184680BD00BF554F0000C14D0000CD
S1134FB0B15B0000B806001080B483B000AF786025
S1134FC000BF074B1A687B681A407B689A42F8D185
S1134FD0044A7B6813600C37BD465DF8047B704758
S1134FE000C2005008C2005080B582B000AF034632
S1134FF0FB71074B30221A60064AFB791B0443F409
S1135000A06313601020FFF7D7FF0837BD4680BDAB
S113501008C2005010C2005080B582B000AF0346F1
S11350200A46FB711346BB80FB791846FFF7DCFF89
S1135030054ABB881B0443F4807313601020FFF7F8
S1135040BBFF0837BD4680BD10C2005080B582B09A
S113505000AF0346FB71FB791846FFF7C5FF084A0A
S1135060FB791B0443F4007313602020FFF7A4FFB3
S1135070044B1B68DBB218460837BD4680BD00BF31
S113508010C2005014C2005080B582B000AF7860E6
S11350900B467B800A490A4B1B6801207A6800FA98
S11350A002F213430B60074A7B681360064A7B884D
S11350B013604FF48070FFF77FFF0837BD4680BD53
S11350C044C2005048C200504CC2005080B582B067
S11350D000AF786039607B68DBB243F04003DBB239
S11350E0DAB23B68002B01D0002300E020231046F5
S11350F01946FFF791FF0837BD4680BD80B584B0DF
S113510000AF03460A46FB711346BB80FB7903F0EC
S11351100F035B00FA79D209D2B21343FB60BB8858
S1135120F8681946FFF7B0FFF8680121FFF7CEFFD2
S11351301037BD4680BD00BF80B485B000AF0346C4
S11351403960FB71FB7903F00F035B00FA79D20934
S1135150D2B21343FB60FB68DA0F13445B101946A9
S11351600B4A3B6842F821300A490A4B1B6801206C
S1135170FA6800FA02F213430B60074A064B1B68F5
S113518043F0040313601437BD465DF8047B704795
S1135190C406001034C2005004C2005080B483B06E
S11351A000AF7860064A7B681360064A054B1B68AB
S11351B043F0080313600C37BD465DF8047B704769
S11351C0C006001004C2005080B483B000AF786001
S11351D0064A7B681360064A054B1B6843F00103CB
S11351E013600C37BD465DF8047B7047040700105C
S11351F004C2005080B582B000AF0346FB71FB7956
S113520063F07F03DBB29BB2D0201946FFF704FFA3
S11352100837BD4680BD00BF80B582B000AF78605E
S11352207B68002B14BF01230023DBB29BB2FE205A
S11352301946FFF7F1FE0837BD4680BD80B582B040
S113524000AF0346FB71FB799BB2F3201946FFF7CD
S1135250E3FE0837BD4680BD80B584B000AF034689
S1135260FB71FB7903F00F035B00FA79D209D2B228
S11352701343FB60FB68DBB21846FFF7E7FE034607
S113528018461037BD4680BD80B584B000AF0346D4
S11352903960FB71FB7903F00F035B00FA79D209E3
S11352A0D2B21343FB60FB68DBB243F04003DBB2D2
S11352B0DAB23B68002B14BF01230023DBB29BB29C
S11352C010461946FFF7A8FE1037BD4680BD00BF43
S11352D080B586B000AF0346B9607A60FB73FB7B90
S11352E003F00F035B00FA7BD209D2B213437B6154
S11352F01B4AFB7B03F00F039B0043F00203136084
S1135300184A7B68136015E01749BB6803331B78A0
S11353101A06BB6802331B781B041A43BB680133AB
S11353201B781B021343BA68127813430B60BB68E3
S11353300433BB600A4B1B6803F00203002BE3D168
S1135340074B00221A607B69DBB21846FFF74CFE5C
S1135350FA20FFF749FE7B6818461837BD4680BD22
S113536028C2005024C200501CC2005080B588B02E
S113537000AF0346B9607A60FB73FB7B03F00F0355
S11353805B00FA7BD209D2B213437B61274AFB7BD1
S113539003F00F039B0043F001031360244B1B68CD
S11353A03B613B6903F40063002BF7D03B6903F4D2
S11353B08063002B02D14FF0FF3333E03B69C3F32A
S11353C009033B610023BB610023FB611AE0FB6915
S11353D003F00303002B02D1164B1B68BB61BB68AF
S11353E0002B09D0FA697B689A4205D2BA68FB6936
S11353F01344BA69D2B21A70BB691B0ABB61FB6958
S11354000133FB61FA693B699A42E0D3074B0022FE
S11354101A607B69DBB21846FFF7E6FDF220FFF75E
S1135420E3FD3B6918462037BD4680BD28C20050C5
S113543020C2005018C2005080B582B000AF78601E
S11354407B68002B14BF01230023DBB29BB2D8205E
S11354501946FFF7E1FD0837BD4680BD80B586B02B
S113546000AF5B4B1B683B613B6903F00103002BFE
S113547010D0584B01221A60574B1B68002B09D0DF
S1135480F520FFF7E3FD0346FB81534B1B68FA89C4
S1135490104698473B6903F00803002B2BD04D4B73
S11354A008221A60FE20FFF7D1FD03467B737B7B45
S11354B003F01A03002B1ED07B7B03F00103002BA7
S11354C014BF01230023DBB2DAB27B7B03F00403B5
S11354D0DBB21343DAB27B7B03F01003DBB213437A
S11354E0DBB23B733D4B1B68002B04D03B4B1B686A
S11354F03A7B104698473B6903F00403002B63D0C2
S1135500344B04221A6000237B615AE001227B6938
S113551002FA03F3BB60324B1A68BB681340002BDA
S11355204CD0304ABB6813602020FFF745FD2E4B5A
S11355301B68FB71FB7903F00103002B14BF0123EB
S11355400023DBB2DAB2FB7903F00203DBB21343CC
S1135550DAB2FB7903F00403DBB21343DAB2FB796A
S113556003F01003DBB21343DAB2FB7903F0080350
S1135570DBB21343DBB23B737B69DA0F13445B107A
S11355801A461A4B53F82230002B17D07B69DA0FD6
S113559013445B101A46154B53F822307A69D20132
S11355A0D1B27A695210D2B202F00F02D2B20A43D7
S11355B0D2B2D1B23A7B0846114698477B6901338F
S11355C07B617B691F2BA1DD1837BD4680BD00BF01
S11355D000C2005008C2005004070010C0060010AA
S11355E030C2005038C2005014C20050C40600102B
S11355F080B500AF2D4A2D4B1B6823F4402343F4A0
S1135600802313602A4A2A4B1B6823F0300343F09B
S113561010031360264A264B1B6823F0405343F0C3
S113562000531360234A234B1B6823F0406343F069
S1135630806313601F4A1F4B1B6823F0405343F0E1
S1135640805313601C4A1C4B1B6843F000431360D7
S11356501A4A1A4B1B6843F01203136000BF184B1D
S11356601B6803F00203002BF9D000BF144B1B6826
S113567003F01003002BF9D0124B00221A60124BD6
S11356804FF0FF321A60114B00221A60104B0022B7
S11356901A60104B4FF0FF321A600F4B00221A6051
S11356A00020FFF7CBFD0123184680BD10C0024047
S11356B00CC0024004C00240C4C00F40F4CF0050EC
S11356C0F8CF005004C2005008C200502CC2005051
S11356D034C2005038C2005040C2005080B489B077
S11356E000AFF860B9607A603B602D4B1B78002BEB
S11356F001D100234EE0FB685A78294B1B789A426B
S113570047D1BB6800221A60FB68DB88FB61FB6839
S11357105B88FB76FB685B881B0A9BB2BB76FB68E5
S11357209B88042B02D0052B07D00DE03B681D4A53
S11357301A607B6828221A6008E03B681A4A1A60DB
S11357407B6892221A6001E0012323E0BB7E1B04E4
S11357507B617B681A687B699A4201DA012319E04C
S11357603B681A687B691A443B681A607B681A684C
S11357707B69D21A7B681A607B681A68FB699A4253
S113578002DD7B68FA691A60BB6801221A60012392
S113579000E0002318462437BD465DF8047B7047BB
S11357A014070010F05D00006804001080B483B09A
S11357B000AF78603960084B1A78084B1A743B685C
S11357C0064A1A607B6812221A60012318460C37B5
S11357D0BD465DF8047B70471407001054040010A4
S11357E080B483B000AF7860034A7B6813600C37E1
S11357F0BD465DF8047B70471007001080B588B083
S113580000AFBA607B600346FB810B46BB81FB891A
S11358101B0A9BB2FB75FB89BB75FB7D032B0BD16C
S1135820BB7DEE2B08D1B8687968FFF7BFFF03464C
S1135830002B01D0012336E01D4B1B68FB610023C4
S1135840BB612BE0FB6901331B78FA7D9A421FD1BF
S1135850BA7DBB699A4218D17B68FA691A60FB7DEC
S1135860022B0BD1FB6902331B781A46FB69033305
S11358701B781B021A43BB681A6004E0FB691B789F
S11358801A46BB681A6001230DE0BB690133BB6192
S1135890FB691B781A46FB691344FB61FB691B789F
S11358A0002BCFD1002318462037BD4680BD00BF52
S11358B01007001080B586B000AF03460A46FB719E
S11358C01346BB71FB79002B03D10020FFF7B4FD15
S11358D045E0254B1B687B61FF23FB74FF23BB74EE
S11358E036E07B6901331B78042B08D0052B0AD0E2
S11358F0022B00D026E07B695B79FB7422E07B6994
S1135900DB78BB741EE0FA7CFB799A4219D1BA7C2D
S1135910BB799A4215D17B699B787B747B6904338C
S11359201B789AB27B6905331B781B029BB2134325
S11359309BB2FB817A7CFB8910461946FFF7DEFB9C
S1135940FFE700BF7B691B781A467B6913447B61C0
S11359507B691B78002BC4D10120FFF76DFD012367
S113596018461837BD4680BD1007001080B586B0B4
S113597000AFF860B9607A607B681B687B61FB6884
S11359805B78092B52D801A252F823F0B5590000D4
S1135990255A00002D5A0000255A00002D5A0000F7
S11359A0CB590000D9590000295A0000F1590000D0
S11359B0015A00007B6900221A707B6901330022BE
S11359C01A70BB6802221A6032E0FB685B88DBB2A3
S11359D01846FFF70FFC2BE0FB685A88FB689B888E
S11359E010461946BA687B68FFF708FF034620E0B3
S11359F0124B1A787B691A70BB6801221A6017E08F
S1135A00FB685B88DBB218460021FFF753FF0346AF
S1135A10002B01D100230CE0FB685B88DAB2074B52
S1135A201A7005E0002304E0002302E0002300E0F4
S1135A30012318461837BD4680BD00BF0807001073
S1135A4080B487B000AFF860B9607A607B681B6887
S1135A507B61FB685B780B2B38D801A252F823F0EA
S1135A60915A0000A75A0000CD5A0000A75A00001E
S1135A70CD5A0000CD5A0000CD5A0000CD5A000086
S1135A80CD5A0000CD5A0000AB5A0000B95A0000AC
S1135A907B6900221A707B69013300221A70BB688B
S1135AA002221A6014E0002313E07B6900221A70BA
S1135AB0BB6801221A600BE0FB685B88002B01D0F5
S1135AC0002306E0BB6800221A6001E0002300E026
S1135AD0012318461C37BD465DF8047B704700BFA0
S1135AE080B586B000AFF860B9607A607B681B68E7
S1135AF07B61FB685B780C2B53D801A252F823F02E
S1135B00355B0000675B0000A35B0000835B000063
S1135B10A35B0000A35B0000A35B0000A35B000089
S1135B20A35B0000A35B0000A35B0000A35B000079
S1135B309F5B0000FB689B88DBB21846FFF78CFB79
S1135B40034603F00203002B14BF01230023DBB23E
S1135B501A467B691A707B69013300221A70BB688C
S1135B6002221A601FE0FB685B88002B07D1FB68E8
S1135B709B88DBB218460021FFF786FB13E0002365
S1135B8012E0FB685B88002B07D1FB689B88DBB2C3
S1135B9018460121FFF778FB05E0002304E0002309
S1135BA002E0002300E0012318461837BD4680BDFB
S1135BB080B584B000AFF860B9607A60194B1B6897
S1135BC0002B0AD0174B1B68F868B9687A689847A5
S1135BD00346002B01D001231FE0FB681B7803F070
S1135BE01F03012B0AD0022B0FD0002B14D1F8680D
S1135BF0B9687A68FFF7BAFE03460EE0F868B96838
S1135C007A68FFF71DFF034607E0F868B9687A6809
S1135C10FFF766FF034600E0002318461037BD4631
S1135C2080BD00BF0C070010844641EA000313F056
S1135C30030349D1403A23D30B6803604B684360A4
S1135C408B688360CB68C3600B6903614B694361F4
S1135C508B698361CB69C3610B6A03624B6A4362DC
S1135C608B6A8362CB6AC3620B6B03634B6B4363C4
S1135C708B6B8363CB6BC36340304031403ADBD2E0
S1135C8030320BD30B6803604B6843608B688360CE
S1135C90CB68C36010301031103AF3D20C3205D304
S1135CA051F8043B40F8043B043AF9D2043208D0DA
S1135CB0D2071CBF11F8013B00F8013B01D30B884C
S1135CC003806046704700BF082A13D38B07B1D006
S1135CD010F00303AED0C3F10403D21ADB071CBFD8
S1135CE011F8013B00F8013BA4D331F8023B20F842
S1135CF0023B9FE7043AD9D3013A11F8013B00F87B
S1135D00013BF9D20B7803704B7843708B78837026
S1135D10604670474300000020000010120101019A
S1135D2002000040FFFF0500000101020301090217
S1135D304300020100C03209040000010202010014
S1135D400524001001052401010104240202052494
S1135D500600010705810308000A09040100020A7C
S1135D60000000070505024000000705820240000C
S1135D700004030904440368007400740070003ACA
S1135D80002F002F00750062006500720074006F20
S1135D90006F00740068002E0073006F00750072BD
S1135DA0006300650066006F007200670065002EE6
S1135DB0006E00650074002F002203550062006528
S1135DC000720074006F006F00740068002000739C
S1135DD00065007200690061006C0012033000303D
S1135DE0003000300030003000300031000000008E
S1135DF02800000000010400010000000000000071
S1135E00000157494E5553420000000000000000B5
S1135E100000000000000000F8B500BFF8BC08BC9A
S1135E209E4670479D42000039410000F8B500BF0E
S1135E30F8BC08BC9E4670471141000000000000F9
S1135E40000000000C03001074030010DC030010B9
S1135E50000000000000000000000000000000003E
S1135E60000000000000000000000000000000002E
S1135E7000000000145D00000000000000000000AD
S1135E80000000000000000000000000000000000E
S1135E9000000000000000000000000000000000FE
S1135EA000000000000000000000000000000000EE
S1135EB000000000000000000000000000000000DE
S1135EC000000000000000000000000000000000CE
S1135ED000000000000000000000000000000000BE
S1135EE000000000000000000100000000000000AD
S1135EF00E33CDAB34126DE6ECDE05000B00000072
S1135F00000000000000000000000000000000008D
S1135F10000000000000000000000000000000007D
S1135F20000000000000000000000000000000006D
S1135F30000000000000000000000000000000005D
S11362600000000000000000F11FFF1F00C2010039
S11362700000080012034D00530046005400310092
S113628030003000410000009200000000010500D1
S1136290010088000000070000002A004400650097
S11362A0760069006300650049006E0074006500B3
S11362B072006600610063006500470055004900F4
S11362C0440073000000500000007B0030003100E7
S11362D03200330034003500360037002D00300022
S11362E03100320033002D00340035003600370011
S11362F02D0038003900610062002D0030003100AB
S113630032003300340035003600370038003900DD
S10D6310610062007D00000000003F
S9034705B0
