:10000000E03F0010FD1B0000691C0000691C00009F
:10001000691C0000691C0000691C00000000000051
:10002000000000000000000000000000691C00004B
:10003000691C000000000000691C0000691C000031
:10004000691C00004D0A0000691C0000691C0000CA
:10005000691C0000691C0000691C0000691C00008C
:10006000691C0000691C0000691C0000691C00007C
:10007000691C0000691C0000691C0000691C00006C
:10008000691C0000691C0000691C0000691C00005C
:10009000691C0000691C0000691C0000691C00004C
:1000A000F11B0000691C0000C50B0000691C00006A
:1000B000691C0000691C0000691C0000691C00002C
:1000C000691C0000691C0000691C0000044B054805
:1000D0001B1A062B02D9044B03B11847704700BF07
:1000E000070500100405001000000000054906483F
:1000F000091A891001EBD171491002D0034B03B1E9
:1001000018477047040500100405001000000000A7
:1001100010B5064C237843B9FFF7D8FF044B13B151
:100120000448AFF300800123237010BD04050010C4
:10013000000000008834000008B5084B1BB10848D7
:100140000849AFF300800848036813B9BDE80840C8
:10015000CCE7064B002BF9D09847F7E700000000EA
:10016000883400000805001004050010000000009D
:10017000014600200246034600F03EB838B5084B61
:10018000084DED1AAC1018BFED1805D0013C55F81C
:10019000043D9847002CF9D1BDE8384003F07EB902
:1001A000A8340000AC34000070B50F4E0F4D761B24
:1001B000B61018BF002405D0013455F8043B984709
:1001C000A642F9D10A4E0B4D03F05EF9761BB6102C
:1001D00018BF002406D0013455F8043B9847A642C6
:1001E000F9D170BD70BD00BF94340000943400009C
:1001F0009C340000943400002DE9F047254C06465D
:1002000025688846D5F8484192469946C4B3606847
:100210001F2817DC411C76B104EB8003C3F888A0CB
:10022000D4F88851012282401543022EC4F8885127
:10023000C3F808911ED0831C6160002044F823801D
:10024000BDE8F087144B03B34FF4C870AFF30080E0
:100250000446D0B1D5F84831002784E888003846F4
:10026000C5F848410121C4F88871C4F88C71002E8A
:10027000E1D0D1E7D4F88C311A43C4F88C21DAE705
:1002800005F5A674C5F84841C1E74FF0FF30BDE859
:10029000F08700BF5833000000000000024B13B18C
:1002A0000248FFF765BF7047000000007D010000B5
:1002B00080B400AF044B00221A60044B00221A6085
:1002C000BD465DF8047B704734050010380500100A
:1002D00080B485B000AF78602C4B1B68DBB203F0B4
:1002E0007F03FB722A4B1B68DBB203F07F03BB72F8
:1002F000BB7A0133DBB203F07F037B72FA7A7B7A3D
:100300009A4201D100233AE0BB7A224A1278D1B254
:10031000214A9B0113440A46DA70BB7A1F4A1268CD
:100320001D499B010B445A601D4B02221A60002399
:10033000FB600FE0BB7AFA6879680A441178164AC4
:100340009B011A44FB68134408330A469A71FB6800
:100350000133FB60FB68312BECDDBB7A114A12786C
:10036000D1B20D4A9B0113440A465A700D4B00222C
:100370001A70074B1B680133054A136001231846A6
:100380001437BD465DF8047B704700BF340500108C
:1003900038050010FC050010000600100840004061
:1003A00038C009203005001080B582B000AF144B72
:1003B0001B68DBB203F07F03FB71124B1B68DBB2DF
:1003C00003F07F03BB71FA79BB799A4204D10E4BDB
:1003D00002221A6000230EE0FB799B010B4A1344B2
:1003E00082201946402202F065FA054B1B68013352
:1003F000034A1360012318460837BD4680BD00BF7D
:1004000034050010380500103CC00920000600101B
:1004100080B590B000AFF860B9607A607B681B6807
:10042000FB63FB685B78212B00F2AA8201A252F8E1
:1004300023F000BFBD040000C504000081090000D6
:10044000ED0400000D050000250500004505000035
:100450005D0500007D05000099050000B90500005C
:100460005308000079080000290600002F0600004C
:10047000D50500000D0700002D07000065070000EE
:1004800085070000A10700002D08000035080000C6
:1004900047080000BF080000DD08000081090000D7
:1004A000E9080000A9070000C5070000ED070000EB
:1004B000E5070000F50700003F090000BB680022C7
:1004C0001A605FE2FB685B881A469E4B1B68134408
:1004D0009C4A13609B4B1B68002B03D1994B4FF038
:1004E000FF321A60BB6800221A604BE2964B1B6811
:1004F00003F00203002B14BF01230023DBB21A46D2
:10050000FB6B1A70BB6801221A603BE2FB685B88D8
:10051000002B03D08D4B02221A6033E28C4B022257
:100520001A602FE2884B1B6803F01003002B14BFE6
:1005300001230023DBB21A46FB6B1A70BB68012251
:100540001A601FE2FB685B88002B03D07F4B1022F0
:100550001A6017E27E4B10221A6013E27A4B1B6876
:1005600003F48073002B14BF01230023DBB21A466F
:10057000FB6B1A70BB6801221A6003E2FB685B88A0
:10058000002B04D0714B4FF480721A60FAE1704B6B
:100590004FF480721A60F5E16B4B1B6803F4007333
:1005A000002B14BF01230023DBB21A46FB6B1A7029
:1005B000BB6801221A60E5E1FB685B88002B04D070
:1005C000624B4FF400721A60DCE1614B4FF4007231
:1005D0001A60D7E136237B625E4B1B6807F124016A
:1005E00007F110020846114698473B69DAB2FB6BE7
:1005F0001A70FB6B01337A69D2B21A70FB6B02334B
:100600007A69120AD2B21A70FB6B03337A69120C40
:10061000D2B21A70FB6B04337A69120ED2B21A701E
:10062000BB6805221A60ADE101F040FEAAE13A2361
:100630007B62484B1B6807F1240107F11002084652
:10064000114698473B69DAB2FB6B1A70FB6B0133BA
:100650007A69D2B21A70FB6B02337A69120AD2B28B
:100660001A70FB6B03337A69120CD2B21A70FB6BEF
:1006700004337A69120ED2B21A70FB6B0533BA6971
:10068000D2B21A70FB6B0633BA69120AD2B21A7070
:10069000FB6B0733BA69120CD2B21A70FB6B0833CA
:1006A000BA69120ED2B21A70FB6B0933FA69D2B270
:1006B0001A70FB6B0A33FA69120AD2B21A70FB6B1A
:1006C0000B33FA69120CD2B21A70FB6B0C33FA6955
:1006D000120ED2B21A70FB6B0D333A6AD2B21A7094
:1006E000FB6B0E333A6A120AD2B21A70FB6B0F33ED
:1006F0003A6A120CD2B21A70FB6B10333A6A120EBD
:10070000D2B21A70BB6811221A603BE1124B1B680F
:1007100003F08003002B14BF01230023DBB21A4631
:10072000FB6B1A70BB6801221A602BE1FB685B88C7
:10073000002B03D0094B80221A6023E1084B802252
:100740001A601FE12C05001034C0092038C00920B0
:100750003CC009204804001054C0092058C009209A
:100760005CC009208A4B1B6803F48073002B14BF04
:1007700001230023DBB21A46FB6B1A70BB6801220F
:100780001A60FFE0FB685B88002B04D0814B4FF4BC
:1007900080721A60F6E0804B4FF480721A60F1E0CC
:1007A0007E4B03221A60EDE0052001F013FC0346A6
:1007B000DBB203F00703DAB2FB6B1A70BB680122ED
:1007C0001A60DFE0FB685B88072B09D8FB685B8851
:1007D00043F008039BB20520194601F011FCD1E05B
:1007E0000023D0E06D4B05221A60CBE06B4B062254
:1007F0001A60C7E06A4B1A78FB6B1A70FB6B013307
:10080000674A52781A70FB6B0233654A92781A7005
:10081000FB6B0333624AD2781A70FB6B0433604A75
:1008200012791A70BB6805221A60ABE05B4B00229C
:100830001A60A7E05B4B1B68DAB2FB6B1A70BB68EF
:1008400001221A609EE0FB685B881A46554B1A60CD
:1008500098E0554B1B889BB2DAB2FB6B1A70FB6BAE
:100860000133514A128892B2120A92B2D2B21A706D
:10087000BB6802221A6085E0FB685A884A4B1A80DE
:10088000494B1B889BB240F6DC02934203D9464B8E
:100890001B889BB201E040F6DC03434A1380424BC5
:1008A0001B889BB240F6E922934203D83E4B1B883B
:1008B0009BB201E040F6EA233B4A138062E0392311
:1008C0007B623A4B1B6807F1240107F110020846CE
:1008D00011469847BB6800221A6053E0344B354AF2
:1008E0001A6001F0E3FC4DE0FB685B88B3F5006F34
:1008F00014D9FB685B88B3F5406F0FD8FB689B8801
:10090000B3F5006F0AD9FB689B88B3F5406F05D833
:10091000FB689A88FB685B889A4201D2002332E028
:10092000FB685A88244B1A80FB689A88234B1A80EC
:100930001A4B04221A60BB6800221A6022E0FB6B8B
:1009400000221A70FB6B013300221A701C4802F05F
:10095000D3FC034687F83B30FB6B023397F83B2010
:100960001A70FB6BDA1C97F83B30104614491A4694
:1009700002F04CFC97F83B30DA1CBB681A6001E0CF
:10098000002300E0012318464037BD4680BD00BF6C
:1009900054C0092058C009205CC00920240500105B
:1009A00044260010280500105404001048040010CC
:1009B0001C00001021BB0543560400105804001011
:1009C0001C34000080B500AF01F0D6FD064802F0EF
:1009D000F9F902200549064A01F0AAFD012001F0BB
:1009E0000DFF0023184680BD5C3300001104000099
:1009F0003C05001080B400AF0D4B02221A600D4B75
:100A000000221A700C4B04221A600C4B0C4A1A601C
:100A10000C4B03221A600C4A0B4B1B6843F0020379
:100A20001360034B01221A60BD465DF8047B7047DA
:100A300004400040FC0500100C40004018400040FD
:100A4000FFFF4FC31440004000E100E080B400AF5E
:100A50004FF040231B6803F00103002B0ED0094B1D
:100A60001B78DBB20133DAB2064B1A704FF040222A
:100A70004FF040231B6843F001031360BD465DF84F
:100A8000047B7047FC05001080B400AF344A344B3F
:100A90001B6843F000531360324B00221A60324B44
:100AA00000221A60314B00221A60314B00221A607A
:100AB000304B00221A60304B00221A602F4B00226C
:100AC0001A602F4B00221A602E4BFF221A602E4B09
:100AD000FF221A602D4B2E4A1A602E4A2B4B5A6069
:100AE0002D4A2A4B9A60294B2C4ADA602A4B284A15
:100AF0001A602B4A284B5A60244A274B9A60264B8F
:100B0000264ADA60274A274B1B6823F0806313606C
:100B1000254B01221A6000BF234B1B6803F0010321
:100B2000002BF9D0214A194B1B681360204A174B40
:100B30005B6813601F4A154B9B6813601E4A134B7A
:100B4000DB681360074B4DF206021A601B4B002254
:100B50001A601B4B00221A60BD465DF8047B70478B
:100B6000C4C00F401041005030410050504100506F
:100B70007041005090410050B0410050D0410050B1
:100B8000F041005008400050104000503426001042
:100B9000080003404C260010EC050010329000883D
:100BA0000026001000E100E03040005000410050FD
:100BB00004410050084100500C410050E80500106D
:100BC0008026001080B400AF154B1B6803F00103B2
:100BD000002B21D0134B1B6803F00103002B0AD01C
:100BE000114A114B1B6843F0010313600F4B1B6844
:100BF00001330E4A13600E4B1B6803F00103002BF8
:100C00000AD00C4A0B4B1B6843F0010313600A4BDC
:100C10001B680133084A1360BD465DF8047B7047CA
:100C2000004000500440005008400050E80500100B
:100C30000C400050104000508026001080B400AFDF
:100C4000114B4FF080521A60104A104B1B6843F052
:100C5000010313600E4A0E4B1B6843F0020313603E
:100C60000C4A0C4B1B6843F0010313600A4A0A4B01
:100C70001B6843F080631360084B4FF080521A608A
:100C8000BD465DF8047B704798C0092024000340EE
:100C9000040003401041005000E100E09CC0092026
:100CA00080B500AF354B1B68002B21D10D2047F6D6
:100CB000FF7101F0A5F9122042F6223101F0A0F9EE
:100CC000142041F24B3101F09BF9202040F2011138
:100CD00001F096F92A4B1B889BB2013B9BB2022084
:100CE000194601F08DF90320292101F089F926E048
:100CF000224B1B68012B21D10D2047F6FF7101F01B
:100D00007FF9122042F6223101F07AF9142041F2E3
:100D10004B3101F075F9202040F2011101F070F91A
:100D2000174B1B889BB2013B9BB20220194601F076
:100D300067F90320402101F063F900E01CE000BFE7
:100D400001F0A0F9034603F04003002BF8D0612026
:100D500001F0A2F900BF01F095F9034603F0040386
:100D6000002BF8D0622001F097F9064B80221A6020
:100D7000044B4FF480721A6080BD00BF280500103C
:100D80005404001058C0092080B500AF2F4B1B68D9
:100D9000002B1AD10D2047F6FF7101F031F9122016
:100DA00042F6223101F02CF9142043F24B3101F0CC
:100DB00027F9274B1B889BB20220194601F020F926
:100DC0000320292101F01CF91FE0204B1B68012B97
:100DD0001AD10D2047F6FF7101F012F9122042F6E8
:100DE000223101F00DF9142043F24B3101F008F9E2
:100DF000174B1B889BB20220194601F001F9032012
:100E0000402101F0FDF800E01FE000BF01F03AF9D9
:100E1000034603F04003002BF8D0612001F03CF9B9
:100E200000BF01F02FF9034603F00403002BF8D0B4
:100E3000084B4FF480721A60632001F02DF9064BC5
:100E400080221A60054B03221A6080BD280500101D
:100E50005404001038C0092058C009202005001093
:100E60002DE9F04F95B000AF6E467E60162687F8EC
:100E70004660002687F8476097F84660B6460EF150
:100E8000FF3EC7F840E05FFA86FA4FF0000B4FEAEA
:100E9000CB0949EA5A794FEACA085FFA86F84FF057
:100EA00000094FEAC90545EA58754FEAC8043446B7
:100EB0000734E408E400ADEB040D6C460034FC6339
:100EC00097F846603446013CBC63F4B24FF000052D
:100ED000E90041EA5471E000F0B24FF00001CB00AC
:100EE00043EA5073C20033460733DB08DB00ADEB47
:100EF000030D6B4600337B63BA4B05221A6097F8EB
:100F00004630013BDAB2FB6B1A70FB6B00225A7061
:100F10003A233B62B44B1B6807F1200107F10C0236
:100F2000084611469847FB68DBB2002B01D000232E
:100F3000B7E13B691B0EDAB2FB6B9A703B691B0C85
:100F4000DAB2FB6BDA703B691B0ADAB2FB6B1A711F
:100F50003B69DAB2FB6B5A717B691B0EDAB2FB6B31
:100F60009A717B691B0CDAB2FB6BDA717B691B0A25
:100F7000DAB2FB6B1A727B69DAB2FB6B5A72BB692D
:100F80001B0EDAB2FB6B9A72BB691B0CDAB2FB6BFD
:100F9000DA72BB691B0ADAB2FB6B1A73BB69DAB28D
:100FA000FB6B5A73FB691B0EDAB2FB6B9A73FB691E
:100FB0001B0CDAB2FB6BDA73FB691B0ADAB2FB6B50
:100FC0001A74FB69DAB2FB6B5A74FB6B97F8472013
:100FD0009A74FB6B0022DA74FB6BFF221A75FB6BB1
:100FE000FF225A750D2047F6FF7101F009F8122013
:100FF00042F6223101F004F8142041F24B3100F0A6
:10100000FFFF7A4B1B889BB20220194600F0F8FFC5
:101010002D204FF6AE1100F0F3FF2C2041F2845149
:1010200000F0EEFF97F8473043F00803DBB29BB2C5
:101030000520194600F0E4FF0320292100F0E0FF1D
:1010400000BF01F01FF8034603F04003002BF8D067
:10105000612001F021F800BF01F014F8034603F00D
:101060000403002BF8D0624B4FF480721A60614B7E
:1010700080221A60002387F847303EE097F8473017
:1010800043F00803DBB29BB20520194600F0B8FF1D
:10109000FB6B97F847209A740023FB6425E0FB6CF8
:1010A000DAB2FB6BDA7400BF0E2000F093FF034648
:1010B00003F01F030F2BF7D10023BB640AE0FA6B88
:1010C000BB6C13441B787020194600F0C7FFBB6C43
:1010D0000133BB6497F84620BB6C9A42EFDC632077
:1010E00000F0DAFFFB6C0133FB64FB6C0F2BD6DDE9
:1010F00097F84730013387F8473097F84730072B88
:10110000BCD900BF0E2000F065FF034603F01F03AB
:101110000F2BF7D1384B4FF480721A60642000F027
:10112000BBFF00BF00F0AEFF034603F00403002B3B
:10113000F8D12E4B1B889BB2013B9BB20220194673
:1011400000F05EFF00BF00F09DFF034603F0400388
:10115000002BF8D0612000F09FFF00BF00F092FF4D
:10116000034603F00403002BF8D0214B10221A6031
:1011700000BF0E2000F02EFF034603F01F030F2BCD
:10118000F7D1622000F088FF00BF00F07BFF03462C
:1011900003F01003002BF8D0154B02221A60002335
:1011A000BB640CE0702000F03FFF034619467A6BE9
:1011B000BB6C13440A461A70BB6C0133BB6497F8CE
:1011C0004620BB6C9A42EDDC00F05CFF034603F066
:1011D0000803002B01D000BF10E0074B02221A6069
:1011E000C6E700BF2005001048040010540400109A
:1011F00038C0092058C009203CC009200E2000F04A
:10120000E9FE034603F01F030F2BF7D1642000F023
:1012100043FF00BF00F036FF034603F00403002B3A
:10122000F8D1234B80221A60224B10221A60224BE5
:1012300001221A707B6B9A7C1F4B5A707B6BDA7C95
:101240001D4B9A707B6B1A7D1B4BDA707B6B5A7D42
:10125000194B1A71FB6B01225A700023FB640FE0DB
:101260007A6BFB6C13441A78F96BFB6C0B441B789C
:101270009A4202D0104B00221A70FB6C0133FB64BF
:10128000FB6C112BECDD0B4B02221A600B4B002286
:101290001A600B4B1B68052B02D1094B00221A6008
:1012A0000123D7F804D0012B5437BD46BDE8F08F99
:1012B0005CC009203CC00920442600102005001015
:1012C00024050010F0B587B000AF1624BC730024CD
:1012D000FC73BE7B3446013CBC60F4B24FF00005A9
:1012E000E90041EA5471E000F0B24FF00001CB0098
:1012F00043EA5073C20033460733DB08DB00ADEB33
:10130000030D6B4600337B60894B06221A600D206B
:1013100047F6FF7100F074FE122042F6223100F011
:101320006FFE142041F24B3100F06AFE814B1B88A6
:101330009BB2013B9BB20220194600F061FE2D20BA
:101340004FF6AE1100F05CFE2C2041F2845100F00B
:1013500057FE0520082100F053FE0320292100F04C
:101360004FFE00BF00F08EFE034603F04003002B4B
:10137000F8D0612000F090FE00BF00F083FE03462D
:1013800003F00403002BF8D06B4B10221A606B4B58
:101390004FF480721A60694B02221A60684B8022F7
:1013A0001A6000BF0E2000F015FE034603F01F0375
:1013B0000F2BF7D1614B02221A60622000F06CFE05
:1013C00000BF00F05FFE034603F01003002BF8D0CF
:1013D000594B02221A6000237B610CE0702000F060
:1013E00023FE034619467A687B6913440A461A703D
:1013F0007B6901337B61BA7B7B699A42EEDC00F04A
:1014000041FE034603F00803002B03D000BF4D4B01
:101410007B6100E0C5E77B69013B7B617B69002B59
:10142000F9D1464B02221A60444B10221A60642004
:1014300000F032FE00BF00F025FE034603F0040377
:10144000002BF8D100BF00F01DFE034603F040035F
:10145000002BF8D0374B1B889BB20220194600F0B6
:10146000CFFD00BF00F00EFE034603F04003002B4B
:10147000F8D0612000F010FE2F4B4FF480721A60FC
:10148000BB7B013BDAB27B681A707B6801225A7021
:101490000023FB7339E0FB7B43F00803DBB29BB214
:1014A0000520194600F0ACFD7B68FA7B1A75002315
:1014B0007B6124E07B69DAB27B685A7500BF0E203D
:1014C00000F088FD034603F01F030F2BF7D1002324
:1014D0003B610AE07A683B6913441B787020194627
:1014E00000F0BCFD3B6901333B61BA7B3B699A422A
:1014F000F0DC632000F0D0FD7B6901337B617B6908
:101500000F2BD7DDFB7B0133FB73FB7B072BC2D992
:101510000A4B4FF480721A60642000F0BDFD00BFDA
:1015200000F0B0FD034603F00403002BF8D1EEE613
:10153000200500105404001038C009203CC00920C8
:1015400058C0092080841E0080B582B000AF0023FF
:101550007B603F4B10221A60FEF7AAFE00F07EFC73
:10156000FFF792FAFFF76AFBFFF79AFB65E000BF0F
:10157000384B1B68002B03D1374B1B68002BF7D06F
:10158000344B1B6803F00103002B09D0334B1B685D
:101590007B60334B1B68314A1360314A7B681360B0
:1015A0002D4B1B68002B07D02E4B1B78DBB243F072
:1015B0000203DAB22B4B1A70264B1B68002B21D08A
:1015C000244B1B68012B07D9264B1B78DBB243F059
:1015D0000103DAB2234B1A70214B1B681846FEF741
:1015E00077FE0346002B05D01F4B1B68013B1E4AAC
:1015F000136007E01B4B1B78DBB243F00403DAB245
:10160000184B1A70822001F019F90346FB70FB7821
:1016100003F02003002B01D1FEF7C6FEFB7803F098
:101620004003002B01D1FEF7BFFE01F009FA094B80
:1016300000221A60084B00221A600B4B1B68002B1B
:1016400095D10A4B10221A600837BD4680BD00BFF5
:1016500038C00920E8050010802600104C04001056
:1016600050040010300500102C0500103CC009206B
:1016700090B58FB000AF002387F83530604B102253
:101680001A60FEF715FE5F4B80221A600D2047F6A8
:10169000FF7100F0B5FC122042F6223100F0B0FCE0
:1016A000142041F24B3100F0ABFC202040F201113C
:1016B00000F0A6FC0320292100F0A2FC00BF00F0EE
:1016C000E1FC034603F04003002BF8D000BF00F01C
:1016D000D9FC034603F00403002BF8D182E04A4B07
:1016E0001B88FB8677E0FB8E013B9BB202201946EC
:1016F00000F086FC612000F0CFFC00BF00F0C2FCCF
:10170000034603F00403002BF8D0622000F0C4FC71
:1017100097F8352013465B001344FA8E120A92B2F2
:10172000D2B207F138010B4403F8382C97F8352072
:1017300013465B0013440133FA8ED2B207F138012D
:101740000B4403F8382C97F8352013465B001344FC
:101750009C1C062000F03EFC03461B0A9BB2DAB23A
:1017600007F13803234403F8382C97F83530013358
:1017700087F8353097F83530102B1ED13B46184688
:10178000FEF7A6FD002387F83530822001F056F8D9
:10179000034687F8343097F8343003F02003002BE9
:1017A00001D1FEF701FE97F8343003F04003002B1F
:1017B00001D1FEF7F9FD01F043F9642000F06CFC63
:1017C00000BF00F05FFC034603F00403002BF8D1D8
:1017D000FB8E0133FB86FA8E0C4B1B889BB20133C8
:1017E0009A4280DB0A4B1B68042B3FF478AF094B0D
:1017F00000221A60084B10221A603C37BD4690BD8B
:1018000038C0092058C009205604001058040010A0
:1018100024050010200500103CC00920F0B593B04D
:1018200000AF78604F4B1C4607F1080604F1300EFC
:1018300035462346186859689A68DB680FC5103426
:1018400010367445F4D1334622461068516803C3FC
:1018500000237B647CE000233B6473E07B6C7A684C
:10186000134419783A6C1346DB009B1A07F14802BF
:101870001344403B1B78994261D17B6C01337A68F9
:10188000134419783A6C1346DB009B1A07F148029F
:1018900013443F3B1B78994251D17B6C02337A68E9
:1018A000134419783A6C1346DB009B1A07F148027F
:1018B00013443E3B1B78994241D17B6C03337A68D9
:1018C000134419783A6C1346DB009B1A07F148025F
:1018D00013443D3B1B78994231D17B6C04337A68C9
:1018E000134419783A6C1346DB009B1A07F148023F
:1018F00013443C3B1B78994221D17B6C05337A68B9
:10190000134419783A6C1346DB009B1A07F148021E
:1019100013443B3B1B78994211D17B6C06337A68A8
:10192000134419783A6C1346DB009B1A07F14802FE
:1019300013443A3B1B78994201D101230DE03B6CE3
:1019400001333B643B6C072B88DD7B6C01337B648C
:101950007B6C2B2B7FF77FAF002318464C37BD469F
:10196000F0BD00BF2834000080B584B000AF002374
:101970007B600023FB600023BB6000F06FFAFFF781
:1019800083F8FFF75BF9FFF78BF94EE000BF2A4BB6
:101990001B68002B03D1294B1B68002BF7D0264B6B
:1019A0001B6803F00103002B09D0254B1B687B60EB
:1019B000244B1B68224A1360224A7B6813601F4B2A
:1019C0001B68002B02D0204B10221A601A4B1B6898
:1019D000002B24D0184B1B68012B03D91A4B4FF452
:1019E00080721A60174B1B681846FFF717FF0346F3
:1019F000002B08D0154B02221A606423FB60BB68E1
:101A00000133BB600BE0FB68002B05D10E4B0222BB
:101A10001A600023BB6002E0FB68013BFB60064BE1
:101A200000221A60054B00221A60BB68132BADDD43
:101A30001037BD4680BD00BFE805001080260010AD
:101A40004C040010500400103CC0092038C009208C
:101A500080B485B000AF0346FB71FB794FF4C872C8
:101A600002FB03F3FB60FB68013BFB60FB68002BA0
:101A7000F9D11437BD465DF8047B704780B582B05C
:101A800000AF00F02DF900237B601CE0534B4FF4B6
:101A900080721A60514B10221A60504B02221A6059
:101AA000C820FFF7D5FF4E4B4FF480721A604C4BA5
:101AB00010221A604A4B02221A60C820FFF7C8FFA2
:101AC0007B6801337B607B68012BDFDD00F022FA4D
:101AD000424B4FF480721A60C820FFF7B9FF404BA9
:101AE0004FF480721A60C820FFF7B2FF00F0E4FAEA
:101AF0003A4B4FF480721A60C820FFF7A9FF384BA9
:101B00004FF480721A60C820FFF7A2FF042000F093
:101B100061FA0346B3F5774F00D0FEE72F4B4FF441
:101B200080721A60C820FFF793FF00F0E1FA0023EB
:101B30007B600EE0294B10221A60022000F098F81A
:101B4000274B10221A60022000F092F87B680133C4
:101B50007B607B68032BEDDD204B10221A60FEF7C3
:101B600049FFFFF701FF1D4B02221A60FEF72AFF13
:101B700000F066FF1B4B1B68002B02D0FFF7E4FC54
:101B80002AE0194B1B68032B06D1184B1B68032B4B
:101B900002D0FFF7F9F81FE0134B1B68052B06D1A5
:101BA000124B1B68052B02D0FFF75AF914E00E4BBD
:101BB0001B68062B06D10D4B1B68062B02D0FFF7C6
:101BC00081FB09E0084B1B68042B05D1074B1B6800
:101BD000042B01D0FFF74CFDCAE700BF38C0092035
:101BE0003CC009202C050010240500102005001021
:101BF00080B500AF00F024FF80BD00BF80B582B08B
:101C000000AF124B7B60124B3B6007E03B681A1D34
:101C10003A607A68111D796012681A603B680D4A53
:101C20009342F3D30C4B7B6004E07B681A1D7A600F
:101C300000221A607B68094A9342F6D3FEF7B4FA91
:101C4000074B084A1A60FFF719FFFEE7B03400009F
:101C5000200000100205001004050010842600106A
:101C600008ED00E00000000080B400AFFEE700BF18
:101C700080B582B000AF0346FB71FB79044A02FBDA
:101C800003F3184600F006F80837BD4680BD00BFD4
:101C900040420F0080B483B000AF78607B689A0840
:101CA0007B68DB081A447B689B091A447B68DB0964
:101CB0001A447B689B0A1A447B68DB0A1344074A70
:101CC000136000BF054B1B68013B044A1360002BE7
:101CD000F8D10C37BD465DF8047B70475005001005
:101CE00080B500AF00F036F8104B00221A60104BA0
:101CF0004CF212721A600F4B40F2B1121A600E4B86
:101D000000221A600D4B4FF040521A600C4B00221B
:101D10001A600C4B00221A600B4B00221A600B4B0E
:101D200000221A600A4B00221A6080BD00C0092000
:101D300020C0092040C0092060C0092080C00920BF
:101D400014C0092034C0092054C0092074C00920DF
:101D500094C0092080B400AF274B00221A60274BA3
:101D600000221A60264B00221A60264B00221A60BD
:101D7000254B00221A60254B00221A60244B0022BA
:101D80001A60244B00221A60234B00221A60234B56
:101D900000221A60224B00221A60224B00221A6095
:101DA000214B00221A60214B00221A60204B002296
:101DB0001A60204B00221A601F4B00221A601F4B32
:101DC00000221A601E4B00221A601E4B00221A606D
:101DD0001D4B00221A601D4B00221A601C4B002272
:101DE0001A601C4B00221A601B4B00221A60BD4671
:101DF0005DF8047B704700BF00C0024004C0024091
:101E000008C002400CC0024010C002401CC002408A
:101E100024C0024028C0024000C0092020C0092080
:101E200040C0092060C0092080C0092040C0024095
:101E300044C0024048C002404CC0024050C0024072
:101E40005CC0024064C0024014C0092034C00920B4
:101E500054C0092074C0092094C0092080B400AF88
:101E6000164A164B1B6823F4404343F400431360A7
:101E7000124A124B1B6823F4405343F4005313607F
:101E80000E4A0E4B1B6823F4403343F400331360B7
:101E90000A4A0A4B1B6823F4402343F400231360CF
:101EA000074B4FF080521A60064BC7221A60064B50
:101EB0000C221A60BD465DF8047B704700C00240EA
:101EC00098C00920000003400400034080B400AF24
:101ED0000D4A0D4B1B6823F4701313600B4A0B4B18
:101EE0001B6823F0C0631360094A094B1B6843F465
:101EF00020131360064A064B1B6823F4A0131360DB
:101F0000BD465DF8047B704704C0024000C0092054
:101F100044C0024080B500AFFFF7D8FF094B4FF433
:101F200000721A603220FFF7B5FE074B20221A60BC
:101F3000044B4FF480421A600D2047F6FF7100F009
:101F40005FF880BD38C0092058C0092080B485B032
:101F500000AF03463960FB71FB79013B012202FAB5
:101F600003F3FB60184B20221A601EE03A68FB68FE
:101F70001340002B03D0154B01221A6002E0124BD4
:101F800001221A603B685B003B60104B10221A6014
:101F90000F4B1B6803F00203002B03D03B6843F098
:101FA00001033B60084B10221A60FB795A1EFA713C
:101FB000002BDBD1054B20221A603B6818461437F2
:101FC000BD465DF8047B70475CC0092058C00920FD
:101FD00054C0092080B584B000AF0346FB71FB7983
:101FE00063F07F03DBB21B04FB601820F968FFF786
:101FF000ADFFB860BB689BB218461037BD4680BDC8
:1020000080B584B000AF03460A46FB711346BB801F
:10201000FB791A04BB881343FB601820F968FFF7AB
:1020200095FF1037BD4680BD80B584B000AF034634
:10203000FB71FB7963F07F03DBB29BB21B02FB8178
:10204000FB8910201946FFF781FF0346BB81BB893E
:10205000DBB218461037BD4680BD00BF80B584B0E6
:1020600000AF03460A46FB711346BB71FB791A02A7
:10207000BB791343FB601020F968FFF767FF103747
:10208000BD4680BD80B500AF08200021FFF75EFF90
:102090000346DBB2184680BD80B582B000AF034670
:1020A000FB71FB7908201946FFF750FF0346DBB2AE
:1020B00018460837BD4680BD80B500AF002000211E
:1020C000FFF79EFF00BF0020FFF784FF0346002BB1
:1020D000F9D100204FF40041FFF792FF00BF00202C
:1020E000FFF778FF0346B3F5004FF8D180BD00BF7E
:1020F00080B500AF5E4B44F23A021A605D4B00229D
:102100001A605D4A5C4B1B6823F0020313605B4B53
:10211000AA221A60594B55221A6000BF584B1B68FF
:1021200003F00073002BF9D1534A534B1B6823F083
:1021300001031360514BAA221A60504B55221A60BA
:1021400000BF4F4B1B6803F08073002BF9D14D4B40
:1021500000221A60FFF7B0FF082041F27051FFF72C
:102160004FFF6020FFF798FF00BFFFF78BFF03468C
:1021700003F04003002BF8D0434B20221A6000BF2D
:10218000414B1B6803F04003002BF9D03F4B082262
:102190001A603F4B00221A60364B01221A603D4BF9
:1021A0003D4A1A60354BAA221A60344B55221A60F8
:1021B000314A314B1B6843F0010313602F4BAA22B5
:1021C0001A602E4B55221A6000BF2D4B1B6803F07E
:1021D0008073002BF9D02B4B03221A60264A264B22
:1021E0001B6843F002031360244BAA221A60234B9E
:1021F00055221A6000BF224B1B6803F00073002BAE
:10220000F9D0264B22221A60254BAA221A60244BB1
:1022100055221A60234A234B1B6843F001031360C5
:102220001F4BAA221A601E4B55221A6000BF1E4B7C
:102230001B6803F48073002BF9D000BF1A4B1B6896
:1022400003F48063002BF9D0164A164B1B6843F049
:1022500002031360124BAA221A60114B55221A6016
:1022600000BF114B1B6803F40073002BF9D080BD35
:1022700000C00F400CC10F4080C00F408CC00F4009
:1022800088C00F4004C10F40A0C10F40A8C10F403B
:10229000ACC10F4084C00F4018000100A4C00F4023
:1022A000ACC00F40A0C00F40A8C00F4080B500AF29
:1022B000FFF750FD0A4B02221A604FF080424FF0A8
:1022C00080431B6843F003031360064BAA221A6085
:1022D000044B55221A600120FFF7CAFC80BD00BFE5
:1022E0003CC009200800004080B588B000AFF8600D
:1022F000B9607A60FB681B785B09DBB203F003030B
:10230000FB61FB69022B0ED100237B6107F11403F3
:10231000F8681946BA687B6800F0D2FC0346002BC7
:1023200001D07B690FE00A4AFB6952F82330BB6198
:10233000BB69002B01D1002305E0BB69F868B968CF
:102340007A689847034618462037BD4680BD00BFCF
:102350006805001080B584B000AF0346FB71802093
:10236000012100F083FA074BBB600023FB6002E011
:10237000FB680133FB60FB68072BF9DD1037BD46B6
:1023800080BD00BF5405001080B582B000AF0E4B79
:102390001B68402BA8BF40237B600C4B1A687B68EE
:1023A000802011461A4600F085FA084B1A687B68AF
:1023B0001344064A1360044B1A687B68D31A024A16
:1023C00013600837BD4680BD600500105C05001035
:1023D00080B584B000AF03460A46FB711346BB715B
:1023E000FB79002B40F09180BB7903F00403002BB4
:1023F00041D000204949082200F0AAFA474B1B7837
:102400005B09DBB203F00303FB60454AFB6852F84B
:102410002330444A1360414BDB881A46424B1A6012
:102420003E4BDB881A46414B1A603C4BDB88002B45
:1024300007D03A4B1B78DB09DBB203F00103002B1A
:1024400068D036483949374AFFF74EFF0346002B1C
:1024500004D1BB791846FFF77DFF5BE02F4BDB888B
:102460001A46324B1B689342A8BF13462E4A13608C
:10247000FFF78AFF4EE02C4B1B68002B3EDD294BFB
:102480001A68294B1B68002011461A4600F060FAB2
:10249000B860BB68002B04DABB791846FFF75AFF17
:1024A00038E0204B1A68BB6813441E4A13601E4B69
:1024B0001A68BB68D31A1C4A13601B4B1B68002B9D
:1024C00028D1164B1B785B09DBB203F00303FB60DA
:1024D000134AFB6852F82330124A13600F4813491D
:1024E000104AFFF701FF0346002B04D1BB791846C1
:1024F000FFF730FF0EE0FFF747FF0BE00020002161
:10250000002200F025FAB86004E0FB79802B01D1AD
:10251000FFF73AFF1037BD4680BD00BF54050010DD
:10252000780500105C0500106005001064050010BF
:1025300080B485B000AFF860B9607A600749FB6885
:10254000BA6841F823200649FB687A6841F82320DD
:102550001437BD465DF8047B704700BF6805001066
:102560007805001080B483B000AF0346FB710C37D0
:10257000BD465DF8047B704780B500AF00F02AFBD4
:102580000D4800F013F900200C4900F0DDF8802020
:102590000A4900F0D9F80020402100F0B7F8802067
:1025A000402100F0B3F800200549064AFFF7C0FFBC
:1025B0000123184680BD00BF65250000D12300001F
:1025C000953100008805001080B483B000AF7860BA
:1025D00000BF074B1A687B681A407B689A42F8D1A3
:1025E000044A7B6813600C37BD465DF8047B704776
:1025F00000C2005008C2005080B582B000AF034650
:10260000FB71074B30221A60064AFB791B0443F426
:10261000A06313601020FFF7D7FF0837BD4680BDC9
:1026200008C2005010C2005080B582B000AF03460F
:102630000A46FB711346BB80FB791846FFF7DCFFA7
:10264000054ABB881B0443F4807313601020FFF716
:10265000BBFF0837BD4680BD10C2005080B582B0B8
:1026600000AF0346FB71FB791846FFF7C5FF084A28
:10267000FB791B0443F4007313602020FFF7A4FFD1
:10268000044B1B68DBB218460837BD4680BD00BF4F
:1026900010C2005014C2005080B582B000AF786004
:1026A0000B467B800A490A4B1B6801207A6800FAB6
:1026B00002F213430B60074A7B681360064A7B886B
:1026C00013604FF48070FFF77FFF0837BD4680BD71
:1026D00044C2005048C200504CC2005080B582B085
:1026E00000AF786039607B68DBB243F04003DBB257
:1026F000DAB23B68002B01D0002300E02023104613
:102700001946FFF791FF0837BD4680BD80B584B0FC
:1027100000AF03460A46FB711346BB80FB7903F00A
:102720000F035B00FA79D209D2B21343FB60BB8876
:10273000F8681946FFF7B0FFF8680121FFF7CEFFF0
:102740001037BD4680BD00BF80B485B000AF0346E2
:102750003960FB71FB7903F00F035B00FA79D20952
:10276000D2B21343FB60FB68DA0F13445B101946C7
:102770000B4A3B6842F821300A490A4B1B6801208A
:10278000FA6800FA02F213430B60074A064B1B6813
:1027900043F0040313601437BD465DF8047B7047B3
:1027A0009405001034C2005004C2005080B483B0BD
:1027B00000AF7860064A7B681360064A054B1B68C9
:1027C00043F0080313600C37BD465DF8047B704787
:1027D0009005001004C2005080B582B000AF0346DF
:1027E000FB71FB7963F07F03DBB29BB2D02019460B
:1027F000FFF71AFF0837BD4680BD00BF80B582B025
:1028000000AF78607B68002B14BF01230023DBB28C
:102810009BB2FE201946FFF707FF0837BD4680BD73
:1028200080B582B000AF0346FB71FB799BB2F32009
:102830001946FFF7F9FE0837BD4680BD80B584B064
:1028400000AF0346FB71FB7903F00F035B00FA79DD
:10285000D209D2B21343FB60FB68DBB21846FFF724
:10286000FDFE034618461037BD4680BD80B584B0D6
:1028700000AF03463960FB71FB7903F00F035B0087
:10288000FA79D209D2B21343FB60FB68DBB243F0A2
:102890004003DBB2DAB23B68002B14BF01230023F4
:1028A000DBB29BB210461946FFF7BEFE1037BD469D
:1028B00080BD00BF80B586B000AF0346B9607A60C6
:1028C000FB73FB7B03F00F035B00FA7BD209D2B2F0
:1028D00013437B611B4AFB7B03F00F039B0043F018
:1028E00002031360184A7B68136015E01749BB6840
:1028F00003331B781A06BB6802331B781B041A4388
:10290000BB6801331B781B021343BA681278134368
:102910000B60BB680433BB600A4B1B6803F0020307
:10292000002BE3D1074B00221A607B69DBB218460B
:10293000FFF762FEFA20FFF75FFE7B681846183744
:10294000BD4680BD28C2005024C200501CC20050A9
:1029500080B588B000AF0346B9607A60FB73FB7B3B
:1029600003F00F035B00FA7BD209D2B213437B6101
:10297000274AFB7B03F00F039B0043F00103136026
:10298000244B1B683B613B6903F40063002BF7D0C9
:102990003B6903F48063002B02D14FF0FF3333E037
:1029A0003B69C3F309033B610023BB610023FB6167
:1029B0001AE0FB6903F00303002B02D1164B1B68DE
:1029C000BB61BB68002B09D0FA697B689A4205D2CB
:1029D000BA68FB691344BA69D2B21A70BB691B0AA0
:1029E000BB61FB690133FB61FA693B699A42E0D341
:1029F000074B00221A607B69DBB21846FFF7FCFD2B
:102A0000F220FFF7F9FD3B6918462037BD4680BD2F
:102A100028C2005020C2005018C2005080B582B0B9
:102A200000AF78607B68002B14BF01230023DBB26A
:102A30009BB2D8201946FFF7F7FD0837BD4680BD89
:102A400080B586B000AF5B4B1B683B613B6903F010
:102A50000103002B10D0584B01221A60574B1B6802
:102A6000002B09D0F520FFF7F9FD0346FB81534BFE
:102A70001B68FA89104698473B6903F00803002B4E
:102A80002BD04D4B08221A60FE20FFF7E7FD0346CE
:102A90007B737B7B03F01A03002B1ED07B7B03F040
:102AA0000103002B14BF01230023DBB2DAB27B7BCE
:102AB00003F00403DBB21343DAB27B7B03F01003B1
:102AC000DBB21343DBB23B733D4B1B68002B04D0DE
:102AD0003B4B1B683A7B104698473B6903F0040365
:102AE000002B63D0344B04221A6000237B615AE030
:102AF00001227B6902FA03F3BB60324B1A68BB68A0
:102B00001340002B4CD0304ABB6813602020FFF7E5
:102B10005BFD2E4B1B68FB71FB7903F00103002B5F
:102B200014BF01230023DBB2DAB2FB7903F0020306
:102B3000DBB21343DAB2FB7903F00403DBB21343D5
:102B4000DAB2FB7903F01003DBB21343DAB2FB799C
:102B500003F00803DBB21343DBB23B737B69DA0F8C
:102B600013445B101A461A4B53F82230002B17D02F
:102B70007B69DA0F13445B101A46154B53F8223069
:102B80007A69D201D1B27A695210D2B202F00F0240
:102B9000D2B20A43D2B2D1B23A7B08461146984724
:102BA0007B6901337B617B691F2BA1DD1837BD4633
:102BB00080BD00BF00C2005008C20050D405001004
:102BC0009005001030C2005038C2005014C20050AE
:102BD0009405001080B500AF2D4A2D4B1B6823F4DF
:102BE000402343F4802313602A4A2A4B1B6823F0B6
:102BF000300343F010031360264A264B1B6823F072
:102C0000405343F000531360234A234B1B6823F0C7
:102C1000406343F0806313601F4A1F4B1B6823F01F
:102C2000405343F0805313601C4A1C4B1B6843F015
:102C3000004313601A4A1A4B1B6843F012031360D7
:102C400000BF184B1B6803F00203002BF9D000BF34
:102C5000144B1B6803F01003002BF9D0124B002219
:102C60001A60124B4FF0FF321A60114B00221A60AB
:102C7000104B00221A60104B4FF0FF321A600F4BBE
:102C800000221A600020FFF7CBFD0123184680BD0B
:102C900010C002400CC0024004C00240C4C00F403B
:102CA000F4CF0050F8CF005004C2005008C20050CA
:102CB0002CC2005034C2005038C2005040C20050F4
:102CC00080B489B000AFF860B9607A603B602D4B8A
:102CD0001B78002B01D100234EE0FB685A78294B6A
:102CE0001B789A4247D1BB6800221A60FB68DB88D8
:102CF000FB61FB685B88FB76FB685B881B0A9BB209
:102D0000BB76FB689B88042B02D0052B07D00DE017
:102D10003B681D4A1A607B6828221A6008E03B68FD
:102D20001A4A1A607B6892221A6001E0012323E0AC
:102D3000BB7E1B047B617B681A687B699A4201DA5F
:102D4000012319E03B681A687B691A443B681A60E2
:102D50007B681A687B69D21A7B681A607B681A687C
:102D6000FB699A4202DD7B68FA691A60BB6801223E
:102D70001A60012300E0002318462437BD465DF8A1
:102D8000047B7047E40500106034000070040010FC
:102D900080B483B000AF78603960084B1A78084B74
:102DA0001A743B68064A1A607B6812221A60012373
:102DB00018460C37BD465DF8047B7047E4050010EB
:102DC0005C04001080B483B000AF7860034A7B6875
:102DD00013600C37BD465DF8047B7047E0050010BA
:102DE00080B588B000AFBA607B600346FB810B46BC
:102DF000BB81FB891B0A9BB2FB75FB89BB75FB7D05
:102E0000032B0BD1BB7DEE2B08D1B8687968FFF797
:102E1000BFFF0346002B01D0012336E01D4B1B688A
:102E2000FB610023BB612BE0FB6901331B78FA7D5A
:102E30009A421FD1BA7DBB699A4218D17B68FA6960
:102E40001A60FB7D022B0BD1FB6902331B781A46FB
:102E5000FB6903331B781B021A43BB681A6004E04A
:102E6000FB691B781A46BB681A6001230DE0BB6939
:102E70000133BB61FB691B781A46FB691344FB6194
:102E8000FB691B78002BCFD1002318462037BD46A5
:102E900080BD00BFE005001080B586B000AF0346DE
:102EA0000A46FB711346BB71FB79002B03D100204E
:102EB000FFF7B4FD45E0254B1B687B61FF23FB74E6
:102EC000FF23BB7436E07B6901331B78042B08D0E9
:102ED000052B0AD0022B00D026E07B695B79FB74BE
:102EE00022E07B69DB78BB741EE0FA7CFB799A42B6
:102EF00019D1BA7CBB799A4215D17B699B787B74D6
:102F00007B6904331B789AB27B6905331B781B02FB
:102F10009BB213439BB2FB817A7CFB891046194616
:102F2000FFF7F4FBFFE700BF7B691B781A467B695C
:102F300013447B617B691B78002BC4D10120FFF710
:102F40006DFD012318461837BD4680BDE005001011
:102F500080B586B000AFF860B9607A607B681B68A6
:102F60007B61FB685B78092B52D801A252F823F0F1
:102F7000992F0000093000001130000009300000D6
:102F800011300000AF2F0000BD2F00000D300000F9
:102F9000D52F0000E52F00007B6900221A707B69A5
:102FA000013300221A70BB6802221A6032E0FB680B
:102FB0005B88DBB21846FFF70FFC2BE0FB685A88F2
:102FC000FB689B8810461946BA687B68FFF708FFC4
:102FD000034620E0124B1A787B691A70BB68012205
:102FE0001A6017E0FB685B88DBB218460021FFF728
:102FF00053FF0346002B01D100230CE0FB685B88E4
:10300000DAB2074B1A7005E0002304E0002302E067
:10301000002300E0012318461837BD4680BD00BFDD
:10302000D805001080B487B000AFF860B9607A604E
:103030007B681B687B61FB685B780B2B38D801A22F
:1030400052F823F0753000008B300000B1300000E2
:103050008B300000B1300000B1300000B130000012
:10306000B1300000B1300000B13000008F300000FE
:103070009D3000007B6900221A707B6901330022B9
:103080001A70BB6802221A6014E0002313E07B6907
:1030900000221A70BB6801221A600BE0FB685B8893
:1030A000002B01D0002306E0BB6800221A6001E07B
:1030B000002300E0012318461C37BD465DF8047B61
:1030C000704700BF80B586B000AFF860B9607A6025
:1030D0007B681B687B61FB685B780C2B53D801A273
:1030E00052F823F0193100004B3100008731000005
:1030F0006731000087310000873100008731000010
:1031000087310000873100008731000087310000DF
:103110008731000083310000FB689B88DBB21846D2
:10312000FFF78CFB034603F00203002B14BF0123BF
:103130000023DBB21A467B691A707B6901330022D7
:103140001A70BB6802221A601FE0FB685B88002BC4
:1031500007D1FB689B88DBB218460021FFF786FB8E
:1031600013E0002312E0FB685B88002B07D1FB68AB
:103170009B88DBB218460121FFF778FB05E00023AE
:1031800004E0002302E0002300E001231846183782
:10319000BD4680BD80B584B000AFF860B9607A608C
:1031A000194B1B68002B0AD0174B1B68F868B968CD
:1031B0007A6898470346002B01D001231FE0FB6883
:1031C0001B7803F01F03012B0AD0022B0FD0002B1A
:1031D00014D1F868B9687A68FFF7BAFE03460EE0C2
:1031E000F868B9687A68FFF71DFF034607E0F868DA
:1031F000B9687A68FFF766FF034600E000231846C7
:103200001037BD4680BD00BFDC050010844641EA92
:10321000000313F0030349D1403A23D30B68036042
:103220004B6843608B688360CB68C3600B69036144
:103230004B6943618B698361CB69C3610B6A03622C
:103240004B6A43628B6A8362CB6AC3620B6B036314
:103250004B6B43638B6B8363CB6BC36340304031F9
:10326000403ADBD230320BD30B6803604B684360CB
:103270008B688360CB68C36010301031103AF3D292
:103280000C3205D351F8043B40F8043B043AF9D220
:10329000043208D0D2071CBF11F8013B00F8013BF3
:1032A00001D30B8803806046704700BF082A13D300
:1032B0008B07B1D010F00303AED0C3F10403D21AD0
:1032C000DB071CBF11F8013B00F8013BA4D331F828
:1032D000023B20F8023B9FE7043AD9D3013A11F8A8
:1032E000013B00F8013BF9D20B7803704B78437037
:1032F0008B7883706046704720F0030110F0030064
:10330000C0F1000051F8043B00F1040C4FEACC0C72
:103310006FF000021CBF22FA0CF213434FF0010CB5
:103320004CEA0C2C4CEA0C4CA3EB0C0222EA0302F4
:1033300012EACC1204BF51F8043B0430F4D0C2F1BD
:10334000000102EA0102B2FA82F2C2F11F0200EBAE
:10335000D20070474300000020000010120100025C
:10336000FF000040FFFF0400000101020301090209
:10337000200001010080320904000002FF0000006B
:103380000705820240000007050502400000040313
:103390000904440368007400740070003A002F00B0
:1033A0002F00750062006500720074006F006F00EE
:1033B000740068002E0073006F00750072006300D7
:1033C000650066006F007200670065002E006E00E9
:1033D000650074002F003003750062006500720004
:1033E00074006F006F0074006800200061007300BB
:1033F000730065006D0062006C0079005F0074006E
:10340000650073007400120330003000300030009B
:103410003000300030003100000000003230313523
:103420002D31302D52310000475C58CC73345E8E04
:10343000B8B198E668BC11D716331CCD1723AE2C53
:1034400066399A2F75C58CC73345E7EB8B198E66A5
:103450008BCE1D716331CCD1793AE2C66399A2F368
:10346000280000000001040001000000000000002E
:10347000000157494E555342000000000000000073
:103480000000000000000000F8B500BFF8BC08BC58
:103490009E4670479D02000039010000F8B500BF4C
:1034A000F8BC08BC9E4670471101000000000000F7
:1034B000000000000C03001074030010DC03001077
:1034C00000000000000000000000000000000000FC
:1034D00000000000000000000000000000000000EC
:1034E0000000000054330000000000000000000055
:1034F00000000000000000000000000000000000CC
:1035000000000000000000000000000000000000BB
:1035100000000000000000000000000000000000AB
:10352000000000000000000000000000000000009B
:10353000000000000000000000000000000000008B
:10354000000000000000000000000000000000007B
:10355000000000000000000001000000000000006A
:103560000E33CDAB34126DE6ECDE05000B0000002F
:10357000000000000000000000000000000000004B
:10358000000000000000000000000000000000003B
:10359000000000000000000000000000000000002B
:1035A000000000000000000000000000000000001B
:1038D0000000000000000000F11FFF1F4C26001038
:1038E0000026001089096009B309000012034D0089
:1038F0005300460054003100300030004100000009
:10390000920000000001050001008800000007008F
:1039100000002A004400650076006900630065002D
:1039200049006E007400650072006600610063006B
:103930006500470055004900440073000000500036
:1039400000007B00300031003200330034003500CD
:10395000360037002D0030003100320033002D00DA
:1039600034003500360037002D0038003900610082
:1039700062002D0030003100320033003400350089
:103980003600370038003900610062007D00000019
:02399000000035
:0400000300001BFDE1
:00000001FF
