:10400000E03F0010ED42000059430000594300001A
:1040100059430000594300005943000000000000CC
:1040200000000000000000000000000059430000F4
:1040300059430000000000005943000059430000AC
:104040005943000059430000594300005943000000
:1040500059430000594300005943000059430000F0
:1040600059430000594300005943000059430000E0
:1040700059430000594300005943000059430000D0
:1040800059430000594300005943000059430000C0
:1040900059430000594300005943000059430000B0
:1040A00059430000594300005943000059430000A0
:1040B0005943000059430000594300005943000090
:1040C000594300005943000059430000044B054880
:1040D0001B1A062B02D9044B03B11847704700BFC7
:1040E0004B04001048040010000000000549064879
:1040F000091A891001EBD171491002D0034B03B1A9
:1041000018477047480400104804001000000000E1
:1041100010B5064C237843B9FFF7D8FF044B13B111
:104120000448AFF300800123237010BD4804001041
:1041300000000000C446000008B5084B1BB1084849
:104140000849AFF300800848036813B9BDE8084088
:10415000CCE7064B002BF9D09847F7E700000000AA
:10416000C44600004C040010480400100000000089
:10417000014600200246034600F03EB838B5084B21
:10418000084DED1AAC1018BFED1805D0013C55F8DC
:10419000043D9847002CF9D1BDE8384000F09CBAA6
:1041A000E4460000E846000070B50F4E0F4D761B48
:1041B000B61018BF002405D0013455F8043B9847C9
:1041C000A642F9D10A4E0B4D00F07CFA761BB610D0
:1041D00018BF002406D0013455F8043B9847A64286
:1041E000F9D170BD70BD00BFD0460000D0460000C0
:1041F000D8460000D04600002DE9F047254C064681
:1042000025688846D5F8484192469946C4B3606807
:104210001F2817DC411C76B104EB8003C3F888A08B
:10422000D4F88851012282401543022EC4F88851E7
:10423000C3F808911ED0831C6160002044F82380DD
:10424000BDE8F087144B03B34FF4C870AFF30080A0
:104250000446D0B1D5F84831002784E888003846B4
:10426000C5F848410121C4F88871C4F88C71002E4A
:10427000E1D0D1E7D4F88C311A43C4F88C21DAE7C5
:1042800005F5A674C5F84841C1E74FF0FF30BDE819
:10429000F08700BFC046000000000000024B13B1D1
:1042A0000248FFF765BF7047000000007D41000035
:1042B00080B500AF00F07AF80B4B4FF480721A60B3
:1042C00000F056F9084B10221A6000F0DBF900BF2D
:1042D000042000F0ADF90346B3F5774FF8D1024B57
:1042E00002221A60FEE700BF38C0092080B582B004
:1042F00000AF124B7B60124B3B6007E03B681A1D1E
:104300003A607A68111D796012681A603B680D4A3C
:104310009342F3D30C4B7B6004E07B681A1D7A60F8
:1043200000221A607B68094A9342F6D3FFF73CFFEC
:10433000074B084A1A60FFF7BBFFFEE7E84600009C
:104340002000001048040010480400106804001009
:1043500008ED00E00040000080B400AFFEE700BFC1
:1043600080B483B000AF78607B689A087B68DB0814
:104370001A447B689B091A447B68DB091A447B68F2
:104380009B0A1A447B68DB0A1344074A136000BF88
:10439000054B1B68013B044A1360002BF8D10C3716
:1043A000BD465DF8047B70476404001080B500AF23
:1043B00000F036F8104B00221A60104B4CF21272CB
:1043C0001A600F4B40F2B1121A600E4B00221A60B5
:1043D0000D4B4FF040521A600C4B00221A600C4BF0
:1043E00000221A600B4B00221A600B4B00221A604D
:1043F0000A4B00221A6080BD00C0092020C009209D
:1044000040C0092060C0092080C0092014C00920D4
:1044100034C0092054C0092074C0092094C0092068
:1044200080B400AF274B00221A60274B00221A608D
:10443000264B00221A60264B00221A60254B0022D0
:104440001A60254B00221A60244B00221A60244B6C
:1044500000221A60234B00221A60234B00221A60AC
:10446000224B00221A60224B00221A60214B0022AC
:104470001A60214B00221A60204B00221A60204B48
:1044800000221A601F4B00221A601F4B00221A6084
:104490001E4B00221A601E4B00221A601D4B002288
:1044A0001A601D4B00221A601C4B00221A601C4B24
:1044B00000221A601B4B00221A60BD465DF8047B87
:1044C000704700BF00C0024004C0024008C0024064
:1044D0000CC0024010C002401CC0024024C0024078
:1044E00028C0024000C0092020C0092040C0092087
:1044F00060C0092080C0092040C0024044C0024082
:1045000048C002404CC0024050C002405CC0024063
:1045100064C0024014C0092034C0092054C00920DE
:1045200074C0092094C0092080B400AF0D4A0D4B1F
:104530001B6823F4701313600B4A0B4B1B6823F0AA
:10454000C0631360094A094B1B6843F420131360CE
:10455000064A064B1B6823F4A0131360BD465DF8A2
:10456000047B704704C0024000C0092044C00240E0
:1045700080B500AFFFF7D8FF094B4FF400721A6007
:104580003220FFF7EDFE074B20221A60044B4FF458
:1045900080421A600D2047F6FF7100F05FF880BD81
:1045A00038C0092058C0092080B485B000AF034648
:1045B0003960FB71FB79013B012202FA03F3FB60D6
:1045C000184B20221A601EE03A68FB681340002B4B
:1045D00003D0154B01221A6002E0124B01221A602F
:1045E0003B685B003B60104B10221A600F4B1B684E
:1045F00003F00203002B03D03B6843F001033B6050
:10460000084B10221A60FB795A1EFA71002BDBD17D
:10461000054B20221A603B6818461437BD465DF8EA
:10462000047B70475CC0092058C0092054C0092091
:1046300080B584B000AF0346FB71FB7963F07F0364
:10464000DBB21B04FB601820F968FFF7ADFFB86010
:10465000BB689BB218461037BD4680BD80B584B09C
:1046600000AF03460A46FB711346BB80FB791A0470
:10467000BB881343FB601820F968FFF795FF1037DC
:10468000BD4680BD80B500AF00200021FFF7E6FFEA
:1046900000BF0020FFF7CCFF0346002BF9D100201C
:1046A0004FF40041FFF7DAFF00BF0020FFF7C0FF23
:1046B0000346B3F5004FF8D180BD00BF43000000B2
:1046C00020000010F8B500BFF8BC08BC9E4670473B
:1046D0009D42000039410000F8B500BFF8BC08BC9D
:0846E0009E46704711410000E5
:1046E800000000000C03001074030010DC0300102D
:1046F80000000000000000000000000000000000B2
:1047080000000000000000000000000000000000A1
:1047180000000000BC46000000000000000000008F
:104728000000000000000000000000000000000081
:104738000000000000000000000000000000000071
:104748000000000000000000000000000000000061
:104758000000000000000000000000000000000051
:104768000000000000000000000000000000000041
:104778000000000000000000000000000000000031
:104788000000000000000000010000000000000020
:104798000E33CDAB34126DE6ECDE05000B000000E5
:1047A8000000000000000000000000000000000001
:1047B80000000000000000000000000000000000F1
:1047C80000000000000000000000000000000000E1
:1047D80000000000000000000000000000000000D1
:04000003000042EDCA
:00000001FF
