:10400000E03F0010F94200006543000065430000F6
:1040100065430000654300006543000000000000A8
:1040200000000000000000000000000065430000E8
:104030006543000000000000654300006543000088
:1040400065430000654300006543000065430000D0
:1040500065430000654300006543000065430000C0
:1040600065430000654300006543000065430000B0
:1040700065430000654300006543000065430000A0
:104080006543000065430000654300006543000090
:104090006543000065430000654300006543000080
:1040A0006543000065430000654300006543000070
:1040B0006543000065430000654300006543000060
:1040C000654300006543000065430000044B05485C
:1040D0001B1A062B02D9044B03B11847704700BFC7
:1040E0004B04001048040010000000000549064879
:1040F000091A891001EBD171491002D0034B03B1A9
:1041000018477047480400104804001000000000E1
:1041100010B5064C237843B9FFF7D8FF044B13B111
:104120000448AFF300800123237010BD4804001041
:10413000000000006045000008B5084B1BB10848AE
:104140000849AFF300800848036813B9BDE8084088
:10415000CCE7064B002BF9D09847F7E700000000AA
:10416000604500004C0400104804001000000000EE
:10417000014600200246034600F03EB838B5084B21
:10418000084DED1AAC1018BFED1805D0013C55F8DC
:10419000043D9847002CF9D1BDE8384000F0EAB959
:1041A000804500008445000070B50F4E0F4D761B12
:1041B000B61018BF002405D0013455F8043B9847C9
:1041C000A642F9D10A4E0B4D00F0CAF9761BB61083
:1041D00018BF002406D0013455F8043B9847A64286
:1041E000F9D170BD70BD00BF6C4500006C4500008A
:1041F000744500006C4500002DE9F047254C06464B
:1042000025688846D5F8484192469946C4B3606807
:104210001F2817DC411C76B104EB8003C3F888A08B
:10422000D4F88851012282401543022EC4F88851E7
:10423000C3F808911ED0831C6160002044F82380DD
:10424000BDE8F087144B03B34FF4C870AFF30080A0
:104250000446D0B1D5F84831002784E888003846B4
:10426000C5F848410121C4F88871C4F88C71002E4A
:10427000E1D0D1E7D4F88C311A43C4F88C21DAE7C5
:1042800005F5A674C5F84841C1E74FF0FF30BDE819
:10429000F08700BF5C45000000000000024B13B136
:1042A0000248FFF765BF7047000000007D41000035
:1042B00080B500AF00F092F80D4B02221A600C4B53
:1042C0004FF480721A600A4B10221A60012000F02D
:1042D0004DF8084B02221A60064B4FF480721A60A8
:1042E000044B10221A60012000F040F8E4E700BF00
:1042F00038C009203CC0092080B582B000AF124B05
:104300007B60124B3B6007E03B681A1D3A607A689D
:10431000111D796012681A603B680D4A9342F3D30D
:104320000C4B7B6004E07B681A1D7A6000221A60E7
:104330007B68094A9342F6D3FFF736FF074B084ADA
:104340001A60FFF7B5FFFEE7884500002000001067
:1043500048040010480400106804001008ED00E054
:104360000040000080B400AFFEE700BF80B582B01F
:1043700000AF0346FB71FB79044A02FB03F31846C6
:1043800000F006F80837BD4680BD00BF40420F0070
:1043900080B483B000AF78607B689A087B68DB08E4
:1043A0001A447B689B091A447B68DB091A447B68C2
:1043B0009B0A1A447B68DB0A1344074A136000BF58
:1043C000054B1B68013B044A1360002BF8D10C37E6
:1043D000BD465DF8047B70476404001080B500AFF3
:1043E00000F036F8104B00221A60104B4CF212729B
:1043F0001A600F4B40F2B1121A600E4B00221A6085
:104400000D4B4FF040521A600C4B00221A600C4BBF
:1044100000221A600B4B00221A600B4B00221A601C
:104420000A4B00221A6080BD00C0092020C009206C
:1044300040C0092060C0092080C0092014C00920A4
:1044400034C0092054C0092074C0092094C0092038
:1044500080B400AF274B00221A60274B00221A605D
:10446000264B00221A60264B00221A60254B0022A0
:104470001A60254B00221A60244B00221A60244B3C
:1044800000221A60234B00221A60234B00221A607C
:10449000224B00221A60224B00221A60214B00227C
:1044A0001A60214B00221A60204B00221A60204B18
:1044B00000221A601F4B00221A601F4B00221A6054
:1044C0001E4B00221A601E4B00221A601D4B002258
:1044D0001A601D4B00221A601C4B00221A601C4BF4
:1044E00000221A601B4B00221A60BD465DF8047B57
:1044F000704700BF00C0024004C0024008C0024034
:104500000CC0024010C002401CC0024024C0024047
:1045100028C0024000C0092020C0092040C0092056
:1045200060C0092080C0092040C0024044C0024051
:1045300048C002404CC0024050C002405CC0024033
:1045400064C0024014C0092034C0092054C00920AE
:1045500074C0092094C0092043000000200000100E
:10456000F8B500BFF8BC08BC9E4670479D420000ED
:1045700039410000F8B500BFF8BC08BC9E46704742
:084580001141000000000000E1
:10458800000000000C03001074030010DC0300108E
:104598000000000000000000000000000000000013
:1045A8000000000000000000000000000000000003
:1045B8000000000058450000000000000000000056
:1045C80000000000000000000000000000000000E3
:1045D80000000000000000000000000000000000D3
:1045E80000000000000000000000000000000000C3
:1045F80000000000000000000000000000000000B3
:1046080000000000000000000000000000000000A2
:104618000000000000000000000000000000000092
:104628000000000000000000010000000000000081
:104638000E33CDAB34126DE6ECDE05000B00000046
:104648000000000000000000000000000000000062
:104658000000000000000000000000000000000052
:104668000000000000000000000000000000000042
:104678000000000000000000000000000000000032
:04000003000042F9BE
:00000001FF
